:100000000C9434000C943E000C943E000C943E0082
:100010000C943E000C943E000C943E000C943E0068
:100020000C943E000C943E000C943E000C943E0058
:100030000C943E000C943E000C943E000C943E0048
:100040000C943E000C943E000C943E000C943E0038
:100050000C943E000C943E000C943E000C943E0028
:100060000C943E000C943E0011241FBECFEFD8E04C
:10007000DEBFCDBF0E9462000C946D000C940000A6
:10008000CF93DF9300D0CDB7DEB79A838983898180
:100090009A81892B19F481E090E00FC089819A81BF
:1000A00001970E944000AC0129813A81429FC00122
:1000B000439F900D529F900D11240F900F90DF9150
:1000C000CF910895CF93DF93CDB7DEB785E090E071
:0E00D0000E944000DF91CF910895F894FFCF79
:00000001FF
